{
  "contractName": "MultiSignature",
  "abi": [
    {
      "inputs": [
        {
          "internalType": "address[]",
          "name": "_owners",
          "type": "address[]"
        },
        {
          "internalType": "uint256",
          "name": "_numConfirmationsRequired",
          "type": "uint256"
        }
      ],
      "stateMutability": "nonpayable",
      "type": "constructor"
    },
    {
      "anonymous": false,
      "inputs": [
        {
          "indexed": false,
          "internalType": "uint256",
          "name": "transactionId",
          "type": "uint256"
        }
      ],
      "name": "TransactionConfirmed",
      "type": "event"
    },
    {
      "anonymous": false,
      "inputs": [
        {
          "indexed": false,
          "internalType": "uint256",
          "name": "transactionId",
          "type": "uint256"
        }
      ],
      "name": "TransactionExecuted",
      "type": "event"
    },
    {
      "anonymous": false,
      "inputs": [
        {
          "indexed": false,
          "internalType": "uint256",
          "name": "transactionId",
          "type": "uint256"
        },
        {
          "indexed": false,
          "internalType": "address",
          "name": "sender",
          "type": "address"
        },
        {
          "indexed": false,
          "internalType": "address",
          "name": "receiver",
          "type": "address"
        },
        {
          "indexed": false,
          "internalType": "uint256",
          "name": "amount",
          "type": "uint256"
        }
      ],
      "name": "TransactionSubmitted",
      "type": "event"
    },
    {
      "inputs": [],
      "name": "numConfirmationsRequired",
      "outputs": [
        {
          "internalType": "uint256",
          "name": "",
          "type": "uint256"
        }
      ],
      "stateMutability": "view",
      "type": "function",
      "constant": true
    },
    {
      "inputs": [
        {
          "internalType": "uint256",
          "name": "",
          "type": "uint256"
        }
      ],
      "name": "owners",
      "outputs": [
        {
          "internalType": "address",
          "name": "",
          "type": "address"
        }
      ],
      "stateMutability": "view",
      "type": "function",
      "constant": true
    },
    {
      "inputs": [
        {
          "internalType": "uint256",
          "name": "",
          "type": "uint256"
        }
      ],
      "name": "transactions",
      "outputs": [
        {
          "internalType": "address",
          "name": "to",
          "type": "address"
        },
        {
          "internalType": "uint256",
          "name": "value",
          "type": "uint256"
        },
        {
          "internalType": "bool",
          "name": "executed",
          "type": "bool"
        }
      ],
      "stateMutability": "view",
      "type": "function",
      "constant": true
    },
    {
      "inputs": [
        {
          "internalType": "address",
          "name": "_to",
          "type": "address"
        }
      ],
      "name": "submitTransaction",
      "outputs": [],
      "stateMutability": "payable",
      "type": "function",
      "payable": true
    },
    {
      "inputs": [
        {
          "internalType": "uint256",
          "name": "_transactionId",
          "type": "uint256"
        }
      ],
      "name": "confirmTransaction",
      "outputs": [],
      "stateMutability": "nonpayable",
      "type": "function"
    },
    {
      "inputs": [
        {
          "internalType": "uint256",
          "name": "_transactionId",
          "type": "uint256"
        }
      ],
      "name": "executeTransaction",
      "outputs": [],
      "stateMutability": "payable",
      "type": "function",
      "payable": true
    },
    {
      "inputs": [
        {
          "internalType": "uint256",
          "name": "_transactionId",
          "type": "uint256"
        }
      ],
      "name": "isTransactionConfirmed",
      "outputs": [
        {
          "internalType": "bool",
          "name": "",
          "type": "bool"
        }
      ],
      "stateMutability": "view",
      "type": "function",
      "constant": true
    }
  ],
  "bytecode": "0x60806040523480156200001157600080fd5b50604051620015d6380380620015d6833981810160405281019062000037919062000437565b60018251116200007e576040517f08c379a0000000000000000000000000000000000000000000000000000000008152600401620000759062000524565b60405180910390fd5b600081118015620000925750815160015411155b620000d4576040517f08c379a0000000000000000000000000000000000000000000000000000000008152600401620000cb90620005bc565b60405180910390fd5b60005b8251811015620001fe57600073ffffffffffffffffffffffffffffffffffffffff168382815181106200010f576200010e620005de565b5b602002602001015173ffffffffffffffffffffffffffffffffffffffff160362000170576040517f08c379a000000000000000000000000000000000000000000000000000000000815260040162000167906200065d565b60405180910390fd5b6000838281518110620001885762000187620005de565b5b60200260200101519080600181540180825580915050600190039060005260206000200160009091909190916101000a81548173ffffffffffffffffffffffffffffffffffffffff021916908373ffffffffffffffffffffffffffffffffffffffff1602179055508080600101915050620000d7565b508060018190555050506200067f565b6000604051905090565b600080fd5b600080fd5b600080fd5b6000601f19601f8301169050919050565b7f4e487b7100000000000000000000000000000000000000000000000000000000600052604160045260246000fd5b620002728262000227565b810181811067ffffffffffffffff8211171562000294576200029362000238565b5b80604052505050565b6000620002a96200020e565b9050620002b7828262000267565b919050565b600067ffffffffffffffff821115620002da57620002d962000238565b5b602082029050602081019050919050565b600080fd5b600073ffffffffffffffffffffffffffffffffffffffff82169050919050565b60006200031d82620002f0565b9050919050565b6200032f8162000310565b81146200033b57600080fd5b50565b6000815190506200034f8162000324565b92915050565b60006200036c6200036684620002bc565b6200029d565b90508083825260208201905060208402830185811115620003925762000391620002eb565b5b835b81811015620003bf5780620003aa88826200033e565b84526020840193505060208101905062000394565b5050509392505050565b600082601f830112620003e157620003e062000222565b5b8151620003f384826020860162000355565b91505092915050565b6000819050919050565b6200041181620003fc565b81146200041d57600080fd5b50565b600081519050620004318162000406565b92915050565b6000806040838503121562000451576200045062000218565b5b600083015167ffffffffffffffff8111156200047257620004716200021d565b5b6200048085828601620003c9565b9250506020620004938582860162000420565b9150509250929050565b600082825260208201905092915050565b7f4f6e77657273205265717569726564204d75737420426520477265617465722060008201527f7468616e20310000000000000000000000000000000000000000000000000000602082015250565b60006200050c6026836200049d565b91506200051982620004ae565b604082019050919050565b600060208201905081810360008301526200053f81620004fd565b9050919050565b7f4e756d206f6620636f6e6669726d6174696f6e7320617265206e6f7420696e2060008201527f73796e6300000000000000000000000000000000000000000000000000000000602082015250565b6000620005a46024836200049d565b9150620005b18262000546565b604082019050919050565b60006020820190508181036000830152620005d78162000595565b9050919050565b7f4e487b7100000000000000000000000000000000000000000000000000000000600052603260045260246000fd5b7f496e76616c6964204f776e657200000000000000000000000000000000000000600082015250565b600062000645600d836200049d565b915062000652826200060d565b602082019050919050565b60006020820190508181036000830152620006788162000636565b9050919050565b610f47806200068f6000396000f3fe6080604052600436106100705760003560e01c80639ace38c21161004e5780639ace38c21461010b578063c01a8c841461014a578063d0549b8514610173578063ee22610b1461019e57610070565b8063025e7c27146100755780630b1cd2c0146100b257806366d651db146100ef575b600080fd5b34801561008157600080fd5b5061009c60048036038101906100979190610982565b6101ba565b6040516100a991906109f0565b60405180910390f35b3480156100be57600080fd5b506100d960048036038101906100d49190610982565b6101f9565b6040516100e69190610a26565b60405180910390f35b61010960048036038101906101049190610a6d565b610322565b005b34801561011757600080fd5b50610132600480360381019061012d9190610982565b6104f1565b60405161014193929190610aa9565b60405180910390f35b34801561015657600080fd5b50610171600480360381019061016c9190610982565b610558565b005b34801561017f57600080fd5b506101886106f8565b6040516101959190610ae0565b60405180910390f35b6101b860048036038101906101b39190610982565b6106fe565b005b600081815481106101ca57600080fd5b906000526020600020016000915054906101000a900473ffffffffffffffffffffffffffffffffffffffff1681565b60006003805490508210610242576040517f08c379a000000000000000000000000000000000000000000000000000000000815260040161023990610b58565b60405180910390fd5b600080600090505b6000805490508110156103135760026000858152602001908152602001600020600080838154811061027f5761027e610b78565b5b9060005260206000200160009054906101000a900473ffffffffffffffffffffffffffffffffffffffff1673ffffffffffffffffffffffffffffffffffffffff1673ffffffffffffffffffffffffffffffffffffffff16815260200190815260200160002060009054906101000a900460ff161561030657818061030290610bd6565b9250505b808060010191505061024a565b50600154811015915050919050565b600073ffffffffffffffffffffffffffffffffffffffff168173ffffffffffffffffffffffffffffffffffffffff1603610391576040517f08c379a000000000000000000000000000000000000000000000000000000000815260040161038890610c6a565b60405180910390fd5b600034116103d4576040517f08c379a00000000000000000000000000000000000000000000000000000000081526004016103cb90610cfc565b60405180910390fd5b60006003805490509050600360405180606001604052808473ffffffffffffffffffffffffffffffffffffffff16815260200134815260200160001515815250908060018154018082558091505060019003906000526020600020906003020160009091909190915060008201518160000160006101000a81548173ffffffffffffffffffffffffffffffffffffffff021916908373ffffffffffffffffffffffffffffffffffffffff1602179055506020820151816001015560408201518160020160006101000a81548160ff02191690831515021790555050507f753dcda37efe0bc3675e04e24d1fb08b70681f14675eed4b6e7978495caf2ca0813384346040516104e59493929190610d1c565b60405180910390a15050565b6003818154811061050157600080fd5b90600052602060002090600302016000915090508060000160009054906101000a900473ffffffffffffffffffffffffffffffffffffffff16908060010154908060020160009054906101000a900460ff16905083565b600380549050811061059f576040517f08c379a000000000000000000000000000000000000000000000000000000000815260040161059690610b58565b60405180910390fd5b6002600082815260200190815260200160002060003373ffffffffffffffffffffffffffffffffffffffff1673ffffffffffffffffffffffffffffffffffffffff16815260200190815260200160002060009054906101000a900460ff161561063d576040517f08c379a000000000000000000000000000000000000000000000000000000000815260040161063490610dd3565b60405180910390fd5b60016002600083815260200190815260200160002060003373ffffffffffffffffffffffffffffffffffffffff1673ffffffffffffffffffffffffffffffffffffffff16815260200190815260200160002060006101000a81548160ff0219169083151502179055507fef524c298d730e7d5714dbe2fce9d4eca7de755a12628704719170afda39678b816040516106d59190610ae0565b60405180910390a16106e6816101f9565b156106f5576106f4816106fe565b5b50565b60015481565b6003805490508110610745576040517f08c379a000000000000000000000000000000000000000000000000000000000815260040161073c90610b58565b60405180910390fd5b6003818154811061075957610758610b78565b5b906000526020600020906003020160020160009054906101000a900460ff16156107b8576040517f08c379a00000000000000000000000000000000000000000000000000000000081526004016107af90610e3f565b60405180910390fd5b6000600382815481106107ce576107cd610b78565b5b906000526020600020906003020160000160009054906101000a900473ffffffffffffffffffffffffffffffffffffffff1673ffffffffffffffffffffffffffffffffffffffff166003838154811061082a57610829610b78565b5b90600052602060002090600302016001015460405161084890610e90565b60006040518083038185875af1925050503d8060008114610885576040519150601f19603f3d011682016040523d82523d6000602084013e61088a565b606091505b50509050806108ce576040517f08c379a00000000000000000000000000000000000000000000000000000000081526004016108c590610ef1565b60405180910390fd5b6001600383815481106108e4576108e3610b78565b5b906000526020600020906003020160020160006101000a81548160ff0219169083151502179055507f15ed165a284872ea7017f03df402a0cadfbfab588320ffaf83f160c2f82781c78260405161093b9190610ae0565b60405180910390a15050565b600080fd5b6000819050919050565b61095f8161094c565b811461096a57600080fd5b50565b60008135905061097c81610956565b92915050565b60006020828403121561099857610997610947565b5b60006109a68482850161096d565b91505092915050565b600073ffffffffffffffffffffffffffffffffffffffff82169050919050565b60006109da826109af565b9050919050565b6109ea816109cf565b82525050565b6000602082019050610a0560008301846109e1565b92915050565b60008115159050919050565b610a2081610a0b565b82525050565b6000602082019050610a3b6000830184610a17565b92915050565b610a4a816109cf565b8114610a5557600080fd5b50565b600081359050610a6781610a41565b92915050565b600060208284031215610a8357610a82610947565b5b6000610a9184828501610a58565b91505092915050565b610aa38161094c565b82525050565b6000606082019050610abe60008301866109e1565b610acb6020830185610a9a565b610ad86040830184610a17565b949350505050565b6000602082019050610af56000830184610a9a565b92915050565b600082825260208201905092915050565b7f496e76616c6964205472616e73616374696f6e20496400000000000000000000600082015250565b6000610b42601683610afb565b9150610b4d82610b0c565b602082019050919050565b60006020820190508181036000830152610b7181610b35565b9050919050565b7f4e487b7100000000000000000000000000000000000000000000000000000000600052603260045260246000fd5b7f4e487b7100000000000000000000000000000000000000000000000000000000600052601160045260246000fd5b6000610be18261094c565b91507fffffffffffffffffffffffffffffffffffffffffffffffffffffffffffffffff8203610c1357610c12610ba7565b5b600182019050919050565b7f496e76616c696420526563656976657227732041646472657373000000000000600082015250565b6000610c54601a83610afb565b9150610c5f82610c1e565b602082019050919050565b60006020820190508181036000830152610c8381610c47565b9050919050565b7f5472616e7366657220416d6f756e74204d75737420426520477265617465722060008201527f5468616e20300000000000000000000000000000000000000000000000000000602082015250565b6000610ce6602683610afb565b9150610cf182610c8a565b604082019050919050565b60006020820190508181036000830152610d1581610cd9565b9050919050565b6000608082019050610d316000830187610a9a565b610d3e60208301866109e1565b610d4b60408301856109e1565b610d586060830184610a9a565b95945050505050565b7f5472616e73616374696f6e20497320416c726561647920436f6e6669726d656460008201527f20427920746865206f776e65722e000000000000000000000000000000000000602082015250565b6000610dbd602e83610afb565b9150610dc882610d61565b604082019050919050565b60006020820190508181036000830152610dec81610db0565b9050919050565b7f5472616e73616374696f6e20697320616c726561647920657865637574656400600082015250565b6000610e29601f83610afb565b9150610e3482610df3565b602082019050919050565b60006020820190508181036000830152610e5881610e1c565b9050919050565b600081905092915050565b50565b6000610e7a600083610e5f565b9150610e8582610e6a565b600082019050919050565b6000610e9b82610e6d565b9150819050919050565b7f5472616e73616374696f6e20457865637574696f6e204661696c656400000000600082015250565b6000610edb601c83610afb565b9150610ee682610ea5565b602082019050919050565b60006020820190508181036000830152610f0a81610ece565b905091905056fea2646970667358221220f6d31251c3c060f17470410f1745396c7033fac1fa1d390546bfef5b60f27f2964736f6c63430008170033",
  "immutableReferences": {},
  "source": "// SPDX-License-Identifier: GPL-3.0\r\npragma solidity ^0.8.13;\r\n\r\ncontract MultiSignature {\r\n    address [] public owners;\r\n    uint public numConfirmationsRequired;\r\n    struct Transaction{\r\n        address to;\r\n        uint value;\r\n        bool executed;\r\n    }\r\n    \r\n    mapping (uint=>mapping (address=> bool)) isConfirmed;\r\n    Transaction [] public transactions;\r\n    event TransactionSubmitted (uint transactionId, address sender, address receiver, uint amount);\r\n    event TransactionConfirmed (uint transactionId);\r\n    event TransactionExecuted (uint transactionId);\r\n\r\n    constructor (address [] memory _owners, uint _numConfirmationsRequired) {\r\n        require(_owners.length>1, \"Onwers Required Must Be Greater than 1\");\r\n        require(_numConfirmationsRequired>0 && numConfirmationsRequired<=_owners.length, \"Num of confirmations are not in sync\");\r\n        for(uint i=0; i<_owners.length; i++) {\r\n            require(_owners[i] !=address (0), \"Invalid Owner\");\r\n            owners.push(_owners[i]);\r\n        }\r\n        numConfirmationsRequired = _numConfirmationsRequired;\r\n    }\r\n\r\n\r\n    function submitTransaction(address _to) public payable {\r\n        require(_to!=address(0), \"Invalid Receiver's Address\");\r\n        require(msg.value>0, \"Transfer Amount Must Be Greater Than 0\");\r\n        uint transactionId = transactions.length;\r\n        transactions.push(Transaction({to:_to, value: msg.value, executed: false }));\r\n        emit TransactionSubmitted(transactionId, msg.sender, _to, msg.value);\r\n    }\r\n\r\n    function confirmTransaction(uint _transactionId) public {\r\n        require(_transactionId<transactions.length, \"Invalid Transaction Id\");\r\n        require(!isConfirmed [_transactionId] [msg.sender], \"Transaction Is Already Confirmed By the owner.\");\r\n        isConfirmed [_transactionId] [msg.sender] =true;\r\n        emit TransactionConfirmed (_transactionId);\r\n        if(isTransactionConfirmed(_transactionId)) {\r\n            executeTransaction(_transactionId);\r\n        }\r\n    }\r\n\r\n    function executeTransaction (uint _transactionId) public payable{\r\n        // require(isTransactionConfirmed(_transactionId), \"Transaction not confirmed by all owners\");\r\n        require(_transactionId<transactions.length, \"Invalid Transaction Id\");\r\n        require(!transactions[_transactionId].executed, \"Transaction is already executed\");\r\n        (bool success,) = transactions[_transactionId].to.call{value: transactions[_transactionId].value}(\"\");\r\n        require (success, \"Transaction Execution Failed\");\r\n        transactions[_transactionId].executed=true;\r\n        emit TransactionExecuted (_transactionId);\r\n    }\r\n\r\n    function isTransactionConfirmed (uint _transactionId) public view returns (bool) {\r\n        require(_transactionId<transactions.length, \"Invalid Transaction Id\");\r\n        uint confirmationCount; //initially zero\r\n\r\n        for(uint i=0;i<owners.length; i++) {\r\n            if(isConfirmed [_transactionId] [owners[i]]) {\r\n                confirmationCount++;\r\n            }\r\n        }\r\n        return confirmationCount>=numConfirmationsRequired;\r\n    }\r\n}",
  "sourcePath": "C:\\React Projects\\MultiSafe\\src\\contracts\\MultiSignature.sol",
  "compiler": {
    "name": "solc",
    "version": "0.8.23+commit.f704f362.Emscripten.clang"
  },
  "schemaVersion": "3.4.16",
  "updatedAt": "2023-11-27T07:43:29.488Z",
  "networkType": "ethereum",
  "devdoc": {
    "kind": "dev",
    "methods": {},
    "version": 1
  },
  "userdoc": {
    "kind": "user",
    "methods": {},
    "version": 1
  }
}